:020000040800F2
:100000008007002045010008ED180008E5180008E9
:10001000E918000845070008B922000800000000A0
:100020000000000000000000000000001D19000892
:100030007507000800000000F11800088D20000876
:100040005F0100085F0100085F0100085F01000810
:100050005F0100085F0100085F0100085F01000800
:100060005F0100085F0100085F0100085F010008F0
:100070005F0100085F0100085F0100085F010008E0
:100080005F0100085F0100085F0100085F010008D0
:100090005F0100085F0100085F01000867090008B0
:1000A0005F0100085F0100085F0100085F010008B0
:1000B00097200008992000089B2000085F01000895
:1000C0005F0100085F0100085F0100085F01000890
:1000D0005F010008A5220008B5220008B722000829
:1000E0005F0900085F0100085F0100085F01000868
:1000F0005F0100085F0100085F0100085F01000860
:100100005F0100085F0100089D2000085F010008F2
:10011000CD200008CF2000089F200008A120000863
:100120005F0100085F0100085F0100085F0100082F
:10013000DFF80CD000F0A8FA00480047412C000876
:10014000800700200648804706480047FEE7FEE794
:10015000FEE7FEE7FEE7FEE7FEE7FEE7FEE7FEE777
:100160009520000831010008202A04DB203A21FAFA
:1001700002F00021704721FA02F3D040C2F12002C0
:10018000914008431946704740EA01039B0703D09A
:1001900009E008C9121F08C0042AFAD203E011F8C6
:1001A000013B00F8013B521EF9D27047D2B201E088
:1001B00000F8012B491EFBD270470022F6E710B56C
:1001C00013460A4604461946FFF7F0FF204610BDC5
:1001D0002DE9FE4F81EA030404F0004421F00041C0
:1001E00000944FF0000B23F0004350EA01045ED06E
:1001F00052EA03045BD0C3F30A54C1F30A552C44FA
:10020000A4F2F3340194A0FB0254C1F3130141F4AE
:100210008011C3F3130343F4801301FB024400FB7A
:10022000034E840A970A44EA815447EA8357A4FBA1
:10023000076802958D0A05FB07854FEA932C04FB9E
:100240000C542705029D4FEA065847EA1637B5EBCE
:1002500008056EEB070C870E920E47EA811742EAFB
:100260008312A7FB0201B6EB0B0164EB00042B0D1C
:1002700043EA0C335E1844EB1C50DA465146E7FB68
:100280000201C5F313044FEA0B3343EA14534FEA58
:100290000432019C43EA0603A4F10C040294009C7E
:1002A000CDE900B400F05CF803B0BDE8F08F0020A9
:1002B0000146F9E730B50B46014600202022012413
:1002C00009E021FA02F59D4205D303FA02F5491B24
:1002D00004FA02F52844151EA2F10102F1DC30BD3A
:1002E0002DE9F05F0546002092469B46884606466B
:1002F000814640241BE02846414647462246FFF7F8
:1003000033FF53465A46C01A914110D3114618463E
:10031000224600F0CBF92D1A67EB01084F46224622
:100320000120002100F0C2F917EB00094E41201E08
:10033000A4F10104DFDC484631462A464346BDE8C5
:10034000F09F10B5141E73F1000408DA401C41F14F
:10035000000192185B411A4301D120F0010010BD49
:100360002DE9F04D92469B4611B1B1FA81F202E0BF
:10037000B0FA80F22032904600F098F904460F4619
:1003800040EA0A0041EA0B0153465A46084313D09B
:10039000114653EA010019D0C8F140025046FFF758
:1003A000E3FE05460E4650465946424600F07EF9A9
:1003B000084305D0012004E020463946BDE8F08D11
:1003C0000020054346EAE0762C4337430A9863054C
:1003D000E40AA0EB08000022FD0A44EA47540A3070
:1003E00002D500200146E9E7010510196941DDE960
:1003F000084500196941BDE8F04DA2E72DE9FE4F1F
:10040000804681EA0300C00F0C46009021F00041B5
:1004100023F00045B8EB0200A94105D24046214631
:1004200090461C460B46024623F00040104347D03E
:10043000270DC7F30A00C3F30A510290401A019036
:1004400040286BDAC3F3130040F4801B00989246F7
:1004500020B10023D2EB030A63EB0B0B0198594642
:10046000C0F14002504600F021F906460D465046C4
:100470005946019A00F029F910EB08006141002467
:1004800087EA115284EAE7731A4340D0009A62B3B4
:10049000019A012A4FEA075215DC001B61EB0201A9
:1004A0004FF0004202EA0752CDE90042001C41F53C
:1004B000801132462B46FFF753FF03B0BDE8F08FA3
:1004C00040462146F9E7001B61EB0201001C41F5A3
:1004D000801300185B412018A2F5001747EB0301B9
:1004E00040EAD570B6196D4111E06D084FEA360645
:1004F00045EAC0754FEA0752001B61EB0201001C80
:1005000041F5801149084FEA300000195141324647
:100510002B4603B0BDE8F04FFFF713BF0098012250
:1005200040000023D0EB020263EBE0730098214609
:100530004FEAE074B8EB000061EB0401E9E783F0F7
:1005400000435BE781F0004158E72DE9F04D81EA77
:10055000030404F0004B21F0004514464FF0000A5C
:1005600023F0004150EA050220D054EA01021DD0D8
:10057000C5F30A570246C5F31303C1F31300C1F3D1
:100580000A5640F4801543F48013A7EB0608101BAD
:10059000D64608F2FD3873EB050002D308F10108D6
:1005A00001E092185B41B8F1000F03DA0020014628
:1005B000BDE8F08D00204FF48011064684460EE021
:1005C000171B73EB050705D3121B63EB05030643EB
:1005D0004CEA010C49084FEA300092185B4150EA9E
:1005E0000107EDD152EA030012D082EA040083EA47
:1005F0000501084305D0101BAB4106D201220023A0
:1006000006E000224FF0004302E06FF001025310B9
:100610001AEB06004CEB085110EB0A0041EB0B0102
:10062000BDE8F04DFFF78DBEC1F30A52C1F31301CF
:1006300040F2FF3341F480119A4202DA0020014671
:10064000704740F233439A42A2F2334202DC5242F4
:10065000FFF78ABD00F02AB830B5041E71F100041E
:1006600004DB4FF00044404264EB0101141E73F1BF
:10067000000405DB1C464FF00043524263EB0403C9
:10068000994208BF904230BD064C074D06E0E06835
:1006900040F0010394E8070098471034AC42F6D3C9
:1006A000FFF74AFDD82C0008F82C0008202A04DBAC
:1006B000203A00FA02F1002070479140C2F1200375
:1006C00020FA03F3194390407047202A06DBCB172A
:1006D000203A41FA02F043EAE07306E041FA02F3FD
:1006E000D040C2F12002914008431946704770B5CE
:1006F0008C1810F8015B15F0070301D110F8013BCD
:100700002A1106D110F8012B03E010F8016B01F853
:10071000016B5B1EF9D12B0705D40023521E0DD4AB
:1007200001F8013BFAE710F8013BCB1A921C03E0F9
:1007300013F8015B01F8015B521EF9D5A142D8D331
:10074000002070BD00BFFEE730B590F84050012496
:10075000AC40C56B6C60046863604468102C04D1C5
:100760000468A2600468E16003E00468A1600468B2
:10077000E26030BD7047000070B505460E460024AB
:1007800021E004EB440105EBC10001F0C9F804EBE2
:10079000440105EBC10001F08EF904EB440005EBC8
:1007A000C00040680949884201D1012000E00020D2
:1007B0000749084328B104EB440105EBC10001F0EF
:1007C00017F9601CC4B2B442DBDB70BD000021101D
:1007D0000000311070B504460D4604A001F080FD04
:1007E0002A46214606A001F07BFD70BD2D3E4861E2
:1007F0007070656E204572726F722121210D0A00A2
:100800002D3E4572726F7220506172616D65746524
:1008100072732056616C75653A2066696C65202597
:1008200073206F6E206C696E652025640D0A0000D0
:1008300010B500F001FB00F07EFF10BD10B500F018
:1008400007FB01F03FF910BD10B5044601F0F0FAC6
:10085000204601F0D3F9204601F01AFB204601F0B2
:10086000E9FA204601F062F9204601F039FA204603
:1008700001F098FB204601F0EDFB94F8CB00012835
:1008800019D100BF04F184006063A820045100BFA7
:10089000D421085B02F0DEF9D82108512068C06835
:1008A00040F010002168C860D420025BD8200159B4
:1008B000204600F0B3FF94F8CA0001280BD100BF16
:1008C00004F140002063646600BFB4F8DC0002F06D
:1008D000C1F9E021085110BD38B504462068006810
:1008E000C0F3001000B300BF002000902068006833
:1008F000009020684068009000BF00BF204600F0D4
:100900001EFFD420005B616B09684968401A81B200
:10091000D2200153012184F8C810D420025BD820D2
:100920000159204600F07AFF38BD70B504460E46E6
:1009300094F8C800012801D0002070BDD220055BCA
:10094000691C3046FFF739FCD82001592A46304649
:10095000FFF71AFC002184F8C8102846EDE710B50F
:1009600001F09FFB10BD10B501F09CFB10BD0146CE
:10097000002291F82100022808D00420886300BFDB
:10098000002081F8200000BF01207047086800683F
:1009900020F00E000B6818600868006820F0010065
:1009A0000B68186091F8403001209840CB6B58607C
:1009B000012081F8210000BF002081F8200000BF45
:1009C0001046E2E70146002209B9012070471E4B9C
:1009D000086898420BD21D4B0868C01A1423B0FB5C
:1009E000F3F08000086419480838C8630AE0164B21
:1009F0000868C01A1423B0FBF3F0800008641248A2
:100A00000838C863022081F821000868026843F6AC
:100A1000F0708243D1E901031843CB6818430B6996
:100A200018434B6918438B691843CB691843024339
:100A30000868026000208863012081F821000020FE
:100A400081F8200000BFC1E708040240080002400E
:100A50002DE9F04104460D4616461F464FF00008AA
:100A600000BF94F82000012802D10220BDE8F081E7
:100A7000012084F8200000BF94F8210001282CD127
:100A8000022084F821000020A0632068006820F084
:100A90000100216808603B46324629462046FFF7A0
:100AA00053FEE06A30B12068006840F00E00216813
:100AB00008600BE02068006820F0040021680860EE
:100AC0002068006840F00A0021680860206800681B
:100AD00040F001002168086006E000BF002084F8B3
:100AE000200000BF4FF002084046BFE72DE9F8475D
:100AF000024600239C467BE14FF0010808FA03F40C
:100B0000D1F8008008EA0400A0427DD1DFF8F4A209
:100B1000D1F80480A8EB0A09D0453AD014DCB8F12A
:100B2000030F50D009DCB8F1000F31D0B8F1010F3C
:100B30001CD0B8F1020F49D120E0B8F1110F18D044
:100B4000B8F1120F42D11EE0B9F5881F25D006DC9E
:100B5000B9F5803F20D0B9F5801F37D11AE0B9F53B
:100B6000001F18D0B9F5041F30D117E0D1F80CC020
:100B70002DE0D1F80C8008F1040C28E0D1F80C80AD
:100B800008F1080C23E0D1F80C8008F10C0C1EE0F1
:100B900000BF00BF00BF00BF00BF00BFD1F808808A
:100BA000B8F1000F02D14FF0040C0BE0D1F808802F
:100BB000B8F1010F03D14FF0080C146102E04FF0BF
:100BC000080C546103E04FF0000C00E000BF00BFD0
:100BD000FF2801D8904601E002F104084646FF28AC
:100BE00002D84FEA830803E0A3F108084FEA880817
:100BF0004746D6F800804FF00F0909FA07F928EAAE
:100C000009080CFA07F900E07AE048EA0908C6F892
:100C10000080D1F8048008F08058B8F1805F6FD16F
:100C200000BFDFF8E481D8F8188048F00108DFF849
:100C3000D891C9F81880C846D8F8188008F001087B
:100C4000CDF8008000BF00BF4FEAB9384FEA9309E2
:100C500058F829504FEA83784FEA18794FF00F0877
:100C600008FA09F825EA0805DFF8A081424502D113
:100C70004FF0000824E0DFF89881424502D14FF0A0
:100C800001081DE0DFF88C81424502D14FF00208D7
:100C900016E0DFF88481424502D14FF003080FE0EF
:100CA000DFF87881424502D14FF0040808E0DFF810
:100CB0007081424502D14FF0050801E04FF006086F
:100CC0004FEA83794FEA197908FA09F848EA0505E5
:100CD000DFF850814FEA930948F82950D1F8048091
:100CE00008F48038B8F5803F0BD1DFF83C81D8F8A4
:100CF000008048EA0008DFF83091C9F800800AE077
:100D000075E0DFF82481D8F8008028EA0008DFF8D1
:100D10001891C9F80080D1F8048008F40038B8F5BB
:100D2000003F0ED1DFF8008108F10408D8F80080F8
:100D300048EA0008DFF8F09009F10409C9F80080DA
:100D40000DE0DFF8E48008F10408D8F8008028EA14
:100D50000008DFF8D49009F10409C9F80080D1F83F
:100D6000048008F48018B8F5801F0ED1DFF8B88031
:100D700008F10808D8F8008048EA0008DFF8A890D1
:100D800009F10809C9F800800DE0DFF89C8008F13E
:100D90000808D8F8008028EA0008DFF88C9009F1EC
:100DA0000809C9F80080D1F8048008F40018B8F5E3
:100DB000001F0ED1DFF8708008F10C08D8F8008011
:100DC00048EA0008DFF8609009F10C09C9F80080D2
:100DD0000DE0DFF8548008F10C08D8F8008028EA0C
:100DE0000008DFF8449009F10C09C9F800805B1C89
:100DF000D1F8008028FA03F8B8F1000F7FF47CAE38
:100E0000BDE8F88700001110001002400008014002
:100E1000000C014000100140001401400018014086
:100E2000001C014008000140000401400148006826
:100E300070470000640100200348006803490978F6
:100E40000844014908607047640100206C010020DB
:100E500010B50848006840F01000064908600320FB
:100E600000F0D2F8002000F007F800F02BF8002086
:100E700010BD00000020024070B504460E48007806
:100E80004FF47A71B1FBF0F00C490968B1FBF0F551
:100E9000284600F036FC08B1012070BD102C07D2A6
:100EA00000222146501E00F071F80548046001E060
:100EB0000120F2E70020F0E76C0100207001002023
:100EC0006801002008B5032000F09EF800BF254807
:100ED000806940F00100234988610846806900F07C
:100EE0000100009000BF00BF00BF0846C06940F08D
:100EF0008050C8610846C06900F08050009000BF73
:100F000000BF002211466FF00B0000F03FF80022F6
:100F100011466FF00A0000F039F8002211466FF018
:100F2000090000F033F800221146501F00F02EF89F
:100F300000221146101F00F029F800220F21901EF8
:100F400000F024F800220F21501E00F01FF800BF0F
:100F50000549486820F0E06040F00070486000BF3C
:100F600008BD000000100240000001400146084694
:100F7000002809DB00F01F0301229A4043099B006F
:100F800003F1E023C3F8002100BF70472DE9F05FB3
:100F900080460D461646002701F0B2F9074639464D
:100FA0002A46334601F00700C0F1070ABAF1040FE0
:100FB00002D94FF0040A01E0C0F1070AD14600F15E
:100FC000040ABAF1070F02D24FF0000A01E0A0F1C3
:100FD000030AD4464FF0010A0AFA09FAAAF1010AF3
:100FE0000AEA020A0AFA0CFA4FF0010B0BFA0CFBA0
:100FF000ABF1010B0BEA030B4AEA0B042146404616
:1010000001F086F9BDE8F09F00BF00F00702064B33
:1010100019684FF6FF031940044B0B4343EA0221C2
:10102000014B196000BF70470CED00E00000FA05AD
:1010300070B504460D460CB9012070BD5A480068D1
:1010400000F00700A8420ED25748006820F00700C1
:101050002843554908600846006800F00700A84288
:1010600001D00120E9E7207800F0020002281DD11C
:10107000207800F00400042805D14C48406840F472
:10108000E0604A494860207800F00800082805D14F
:101090004648406840F460504449486043484068CE
:1010A00020F0F000A168084340494860207800F033
:1010B000010078B36068012806D13C48006800F45C
:1010C000003090B90120B8E76068022806D137489F
:1010D000006800F0007040B90120AEE733480068B6
:1010E00000F0020008B90120A7E73048406820F06E
:1010F0000300616808432D494860FFF797FE0646E4
:1011000009E0FFF793FE801B41F28831884202D943
:10111000032092E707E02548406800F00C00616872
:10112000B0EB810FEDD12048006800F00700A84225
:101130000ED91D48006820F0070028431A490860AE
:101140000846006800F00700A84201D0012074E7BB
:10115000207800F00400042807D11448406820F4E7
:10116000E060E168084311494860207800F0080019
:10117000082808D10D48406820F46050216940EAF1
:10118000C1000A49486000F03FF808494968C1F3C6
:101190000311074A515CC8400649086006480068C8
:1011A000FFF76AFE002048E70020024000100240DE
:1011B000C02C000870010020680100200148006870
:1011C000704700007001002000B5FFF7F7FF0449E9
:1011D0004968C1F30221034A515CC84000BD0000C8
:1011E00000100240D02C000800B5FFF7E7FF0449CB
:1011F0004968C1F3C221034A515CC84000BD0000E8
:1012000000100240D02C0008F0B585B00FF26C0C35
:101210009CE8E01001A8A0E8E0101CA52D6800954E
:1012200000210022002300240020194D696801F0EC
:101230000C05F5B1042D02D0082D19D101E0154897
:1012400019E001ADC1F38346AC5D01F4803555B1C1
:101250000F4D6D68C5F340451DF805200D4D6543E4
:10126000B5FBF2F302E00C4D04FB05F3184602E077
:1012700000BF084800BF00BF05B0F0BD0203040571
:10128000060708090A0B0C0D0E0F101001020000D2
:101290000010024000127A0000093D00F8B5044633
:1012A0000CB90120F8BD207800F00100002878D0AA
:1012B000F848406800F00C0004280CD0F54840685D
:1012C00000F00C00082811D1F248406800F480308A
:1012D000B0F5803F0AD1EF48006800F400300028E4
:1012E0005FD0606800285CD10120DBE700BF606848
:1012F000B0F5803F06D1E748006840F48030E5490A
:10130000086028E0606858B9E248006820F480303E
:10131000E04908600846006820F4802008601AE070
:101320006068B0F5A02F0BD1DA48006840F4802047
:10133000D84908600846006840F4803008600AE038
:10134000D448006820F48030D2490860084600681C
:1013500020F48020086000BF606888B1FFF766FD58
:10136000054606E0FFF762FD401B642801D9032013
:1013700098E7C848006800F400300028F2D010E078
:10138000FFF754FD054606E0FFF750FD401B6428BB
:1013900001D9032086E7BF48006800F40030002828
:1013A000F2D1207800F00200022857D1B9484068F5
:1013B00000F00C0050B1B748406800F00C0008285D
:1013C00018D1B448406800F4803098B9B14800683A
:1013D00000F0020020B12069012801D0012061E75E
:1013E000AC48006820F0F800616940EAC100A949F2
:1013F000086033E02069E8B10120A7490860FFF7E1
:1014000015FD054606E0FFF711FD401B022801D936
:10141000032047E79F48006800F002000028F2D050
:101420009C48006820F0F800616940EAC1009949D1
:10143000086013E0002098490860FFF7F7FC0546B4
:1014400006E0FFF7F3FC401B022801D9032029E73F
:101450009048006800F002000028F2D1207800F0E7
:10146000080008282DD1A069B8B101208B49086077
:10147000FFF7DCFC054606E0FFF7D8FC401B02281E
:1014800001D903200EE78348406A00F002000028DB
:10149000F2D0012000F02EFA13E000207F4908600E
:1014A000FFF7C4FC054606E0FFF7C0FC401B02281E
:1014B00001D90320F6E67748406A00F002000028D0
:1014C000F2D1207800F00400042873D1002771487D
:1014D000C06900F0805070B900BF6E48C06940F02C
:1014E00080506C49C8610846C06900F08050009087
:1014F00000BF00BF01276A48006800F48070B0B9DF
:101500006748006840F4807065490860FFF78EFC0A
:10151000054606E0FFF78AFC401B642801D903203A
:10152000C0E65F48006800F480700028F2D000BF79
:10153000E068012806D15748006A40F0010055498B
:10154000086227E0E06858B95248006A20F00100BC
:10155000504908620846006A20F00400086219E059
:10156000E06805280BD14B48006A40F00400494967
:1015700008620846006A40F0010008620AE0454837
:10158000006A20F00100434908620846006A20F022
:101590000400086200BFE068A0B1FFF747FC054601
:1015A00009E0FFF743FC401B41F28831884202D931
:1015B000032077E622E03748006A00F002000028A6
:1015C000EFD012E0FFF732FC054608E0FFF72EFCF3
:1015D000401B41F28831884201D9032062E62D4840
:1015E000006A00F002000028F0D1012F05D129483F
:1015F000C06920F080502749C86100BFE069C8B3C6
:101600002448406800F00C00082860D0E0690228F7
:1016100048D1002020490866FFF708FC054606E08F
:10162000FFF704FC401B022801D903203AE61948C1
:10163000006800F000700028F2D1206AB0F5803F09
:1016400007D11448406820F40030A16808431149CC
:101650004860D4E9080108430E49496821F474112F
:1016600008430C49486001200B490866FFF7DEFB80
:10167000054607E03DE0FFF7D9FB401B022801D9F2
:1016800003200FE60348006800F000700028F2D045
:101690002FE000000010024000004242800442425D
:1016A00000700040002014490866FFF7BFFB0546A4
:1016B00006E0FFF7BBFB401B022801D90320F1E540
:1016C0000E48006800F000700028F2D111E0E069D7
:1016D000012800D1E6E50948466806F48031206A11
:1016E000814204D106F47011606A814201D0012068
:1016F000D8E50020D6E5000000004242001002407C
:10170000704770B504462546681EB0F1807F01D34E
:1017100001200FE0681E4FF0E02148610F214FF0DB
:10172000FF3000F0F5FD00204FF0E0218861072038
:101730000861002070BD10B5FFF7E2FF10BD70B565
:101740000446002520684069C0F3C01594F83900AC
:1017500021280ED16DB12068406920F080002168F9
:101760004861206B10B1206BFFF701F9204600F0B3
:1017700011FD20684069C0F3801594F83A002228D2
:101780000ED16DB12068406920F0400021684861A9
:10179000606B10B1606BFFF7EAF8204600F0EAFCDE
:1017A000002070BD704710B504460CB9012010BD73
:1017B000A06900B100E000BF94F8390028B900200A
:1017C00084F83800204600F027F8242084F83900F7
:1017D0002068C06820F400502168C860204600F0EE
:1017E000E3FC2068006920F49040216808612068CB
:1017F000406920F02A00216848612068C06840F4F0
:1018000000502168C8600020E063202084F839007F
:1018100084F83A000020CAE77047000077B581B02D
:101820000446154694F83A00202850D1029800B199
:1018300015B9012004B070BD00BF94F8380001282C
:1018400001D10220F6E7012084F8380000BF029899
:10185000A062A5850020E063222084F83A001D489C
:10186000616B88621C48616BC8621C48616B0863CD
:101870000020616B486302AE32682368191D2B4655
:10188000606BFFF7E5F800BF00200090206800685B
:10189000009020684068009000BF00BF00BF00209B
:1018A00084F8380000BF2068C06840F48070216868
:1018B000C8602068406940F00100216848612068E4
:1018C000406940F04000216848610020B2E70220F2
:1018D000B0E700002121000867210008D12000089E
:1018E0007047704700BFFEE700BFFEE700BFFEE79E
:1018F0007047000008B508490968C9084FF47A72B2
:10190000B1FBF2F14143009100BF00BF00994A1EB4
:1019100000920029F9D108BD700100207047000035
:1019200008B52D4A016991420DD100BF2B49896943
:1019300041F00401294A91611146896901F00401CD
:10194000009100BF47E0264A016991420DD100BFD6
:101950002249896941F00801204A9161114689694B
:1019600001F00801009100BF35E01E4A0169914273
:101970000DD100BF1949896941F01001174A9161E1
:101980001146896901F01001009100BF23E0164A59
:10199000016991420DD100BF1049896941F02001D0
:1019A0000E4A91611146896901F02001009100BF42
:1019B00011E00E4A016991420DD100BF07498969C2
:1019C00041F04001054A91611146896901F04001E9
:1019D000009100BF00BF08BD000801400010024098
:1019E000000C0140001001400014014000180140AB
:1019F00010B504462068012808D1627D217D0620AB
:101A0000FFF7C4FA0620FFF7B1FA53E02068022876
:101A100008D1627D217D0720FFF7B8FA0720FFF784
:101A2000A5FA47E02068042808D1627D217D0820BE
:101A3000FFF7ACFA0820FFF799FA3BE02068082886
:101A400008D1627D217D0920FFF7A0FA0920FFF768
:101A50008DFA2FE02068102808D1627D217D0A20B0
:101A6000FFF794FA0A20FFF781FA23E02068202884
:101A700001D1012000E0002040F4707040B1627D8F
:101A8000217D1720FFF782FA1720FFF76FFA11E088
:101A90002068B0F5806F01D1012000E0002040F403
:101AA000784038B1627D217D2820FFF76FFA282029
:101AB000FFF75CFA10BD10B5044621462069FFF718
:101AC00015F810BD00B58FB0282105A8FEF775FBED
:101AD00014216846FEF771FB012005900004069072
:101AE000002007900120099002200C90C1030D9165
:101AF0004FF4E0110E9105A8FFF7D0FB08B100BF2D
:101B0000FEE70F20009002200190002002904FF489
:101B1000806003900020049002216846FFF788FA55
:101B200008B100BFFEE70FB000BD000008B52D4AA8
:101B3000016891420DD100BF2B49896941F4804170
:101B4000294A91611146896901F48041009100BFE1
:101B500047E0264A016891420DD100BF2249C96978
:101B600041F40031204AD1611146C96901F40031C4
:101B7000009100BF35E01E4A016891420DD100BFBF
:101B80001949C96941F48021174AD1611146C969CF
:101B900001F48021009100BF23E0164A01689142C0
:101BA0000DD100BF1049C96941F400210E4AD1612D
:101BB0001146C96901F40021009100BF11E00E4AED
:101BC000016891420DD100BF0749C96941F48011F4
:101BD000054AD1611146C96901F48011009100BF25
:101BE00000BF08BD00380140001002400044004022
:101BF00000480040004C00400050004038B504460A
:101C00002949206888420DD100BF2848406940F02A
:101C10000100264948610846406900F00100009033
:101C200000BF3FE02249206888420DD100BF1F4815
:101C3000406940F001001D4948610846406900F0D4
:101C40000100009000BF2DE01A49206888420DD1A4
:101C500000BF1648406940F0010014494861084639
:101C6000406900F00100009000BF1BE012492068AD
:101C700088420DD100BF0D48406940F002000B4979
:101C800048610846406900F00200009000BF09E08A
:101C90000A492068884205D1E92109A0FEF79AFD8A
:101CA00000BFFEE738BD00000038014000100240D0
:101CB0000044004000480040004C004000500040FC
:101CC0002E2E5C4472697665725C5372635C64723A
:101CD000765F68616C5F756172742E63000000004E
:101CE00038B5044600BF4D48806940F001004B49BB
:101CF00088610846806900F00100009000BF00BFC5
:101D000047492068884224D1FA20005D40B900BFCD
:101D10004449486840F0E06020F00400486076E004
:101D2000FA20005D032808D100BF3E49486840F012
:101D3000E06040F00400486069E0FA20005D01289E
:101D400001D100BFFEE7FA20005D02285FD100BF8D
:101D5000FEE735492068884224D1FA20005D40B969
:101D600000BF3049486840F0E06020F0080048605B
:101D70004DE0FA20005D012801D100BFFEE7FA2006
:101D8000005D022801D100BFFEE7FA20005D0328B4
:101D90003DD100BF2349486840F0E06040F00800B2
:101DA000486034E021492068884230D1FA20005D43
:101DB00048B900BF1B49486820F0300040F0E0609F
:101DC00000BF486023E0FA20005D01280AD100BF6F
:101DD0001449486820F0300040F0E06040F0100006
:101DE000486014E0FA20005D022801D100BFFEE740
:101DF000FA20005D03280AD100BF0A49486820F094
:101E0000300040F0E06040F03000486000BF022148
:101E100004F1E400FEF7B0FC38BD00000010024001
:101E200000380140000001400044004000480040EC
:101E30007047000010B5044694F8CB00012808D183
:101E400004F18400FEF7BEFD18B1962108A0FEF74C
:101E5000C1FC94F8CA00012808D104F14000FEF743
:101E6000B1FD18B19B2102A0FEF7B4FC10BD00002B
:101E70002E2E5C4472697665725C5372635C647288
:101E8000765F68616C5F756172742E63000000009C
:101E900010B5044694F8CB0001283AD13D4920689A
:101EA00088420AD194F8CD2094F8CC100F20FFF787
:101EB0006DF80F20FFF75AF82BE037492068884269
:101EC0000AD194F8CD2094F8CC101020FFF75EF8DA
:101ED0001020FFF74BF81CE03049206888420AD1F7
:101EE00094F8CD2094F8CC100D20FFF74FF80D207A
:101EF000FFF73CF80DE02A492068884209D194F8A0
:101F0000CD2094F8CC103A20FFF740F83A20FFF7A4
:101F10002DF894F8CA0001283AD11E492068884259
:101F20000AD194F8CF2094F8CE100E20FFF72EF8A7
:101F30000E20FFF71BF82BE01749206888420AD1D2
:101F400094F8CF2094F8CE101120FFF71FF811203D
:101F5000FFF70CF81CE01149206888420AD194F878
:101F6000CF2094F8CE100C20FFF710F80C20FEF7CD
:101F7000FDFF0DE00A492068884209D194F8CF207E
:101F800094F8CE103B20FFF701F83B20FEF7EEFF60
:101F900010BD0000003801400044004000480040EF
:101FA000004C004010B504462549206888420AD1FB
:101FB00094F8152194F814112520FEF7E7FF252049
:101FC000FEF7D4FF3AE01F49206888420AD194F80E
:101FD000152194F814112620FEF7D8FF2620FEF7CD
:101FE000C5FF2BE01849206888420AD194F81521D2
:101FF00094F814112720FEF7C9FF2720FEF7B6FF3B
:102000001CE01249206888420AD194F8152194F8FE
:1020100014113420FEF7BAFF3420FEF7A7FF0DE0BD
:102020000B492068884209D194F8152194F81411BD
:102030003520FEF7ABFF3520FEF798FF10BD0000FE
:10204000003801400044004000480040004C00407F
:102050000050004010B504462046FFF7A4FB18B11D
:10206000882102A0FEF7B6FB10BD00002E2E5C44B6
:1020700072697665725C5372635C6472765F6861E4
:102080006C5F756172742E630000000010B5FEF77E
:10209000CFFB10BD7047704770477047704770475F
:1020A00070477047704710B5FEF7C8FB10BD0000C1
:1020B00010B503210348FEF75FFB0348FEF7C4FB9E
:1020C00010BD00000000002048000020704770474D
:1020D00070B506460025746A20684069C0F3C015D3
:1020E00094F83900212805D125B10020E08420464C
:1020F00000F050F820684069C0F3801594F83A0069
:10210000222805D125B10020E085204600F032F8D4
:10211000E06B40F01000E0632046FFF743FB70BD2A
:1021200070B505466C6A2868006800F02000B0B9F8
:102130000020E0852068C06820F480702168C860B5
:102140002068406920F001002168486120684069EA
:1021500020F0400021684861202084F83A002046A1
:10216000FFF7BEFB70BD70B50446656A2846FFF7F1
:10217000B8FB70BD0168C96821F490710268D16034
:102180000168496921F0010102685161202180F84C
:102190003A1070470168C96821F0C0010268D16037
:1021A000202180F83910704770B50446216809690C
:1021B00021F44051E2681143226811612269A1684B
:1021C0001143626941EA02052168C96841F20C6263
:1021D000914329432268D1602168496921F4407103
:1021E000A2691143226851612D4A2168914202D1AE
:1021F000FEF7FAFF01E0FEF7E7FF00EBC00101EB9D
:10220000001162689200B1FBF2F100EBC00202EB38
:10221000001263689B00B2FBF3F26423B2FBF3F29B
:1022200002EBC20303EB0212A1EB8201322202EBAA
:1022300001116422B1FBF2F101F0F00100EBC002E8
:1022400002EB001263689B00B2FBF3F26423B2FB63
:10225000F3F201EB021200EBC00101EB0011636825
:102260009B00B1FBF3F100EBC00303EB00136668C6
:10227000B600B3FBF6F36426B3FBF6F303EBC30639
:1022800006EB0313A1EB8301322303EB011164235B
:10229000B1FBF3F101F00F0111442268916070BDB0
:1022A0000038014010B50248FEF716FB10BD0000D3
:1022B000480000207047704700BFFEE7A6B009E065
:1022C00069460548FEF731FBC4B21CB1694603A05C
:1022D00000F006F8F4E70000480000202573000035
:1022E0000FB4054B10B503A9044A029800F0F6F8A4
:1022F00010BC5DF814FB00000D2C000860010020EC
:1023000002480068C0F30220704700000CED00E0B6
:1023100010B5002804DB0A07130E054A135406E023
:102320000A07140E034A00F00F031B1FD45410BDFC
:1023300000E400E018ED00E002E008C8121F08C148
:10234000002AFAD170477047002001E001C1121F36
:10235000002AFBD1704700002DE9FF5F82B0002109
:10236000DDE90430020DDDF840B0034318D044F637
:102370001050A2F2FF3242431514119801281FD0C9
:10238000A5EB0B00401C5FEA000A4FF000064E4F21
:10239000DFF83891B046504615D5CAF1000413E075
:1023A000119801244AA3012801D16FEA0B01029878
:1023B000119AC0E90031C0E9024206B0BDE8F09FC1
:1023C000CBF10000DFE704460021404A491842EB08
:1023D0000450CDE9001012E0E00707D032463B463A
:1023E00040464946FDF7F4FE8046894632463B4664
:1023F00010461946FDF7ECFE06460F466410002C09
:10240000EAD1DDE90401DDE90023BAF1000F06DAC3
:10241000FDF7DEFE42464B46FDF7DAFE05E0FEF72D
:1024200094F842464B46FEF790F804460E460022CA
:10243000284BFEF711F903D84FF0FF30014607E0B3
:102440000022254B20463146FDF7D8FFFEF7ECF879
:10245000102409E0002C0ADB0A220023FDF740FFCC
:10246000039B30321A55641E50EA0102F2D1641CFB
:10247000039AC4F111031444119A012A03D00122D2
:1024800008430DD10AE0084304D000204FF0110B9F
:10249000119072E7A3EB0B056D1E0DE05B4504DDAB
:1024A0004FF0000205F1010504E003DA4FF00002ED
:1024B000A5F10105002AECD002981199C0E902317A
:1024C000C0E9004579E70000000014400000F03F3B
:1024D000300000000000F0430000E03F2DE9FF4F16
:1024E00095B09B468946064600250FE2252877D100
:1024F00000242746F84A0121059400E0044316F819
:10250000013F203B01FA03F01042F7D130782A282E
:1025100011D06FF02F033078A0F13002092A16D8BD
:10252000059A44F0020402EB820203EB42021044DB
:10253000761C0590EFE759F8042B0592002A03DA80
:10254000504244F40054059044F00204761C307864
:102550002E2816D116F8010F44F004042A280DD0B5
:102560006FF02F023078A0F13003092B09D807EB68
:10257000870302EB4303C718761CF3E759F8047B83
:10258000761C30786C280FD006DC4C2817D06828D1
:102590000DD06A2814D104E0742810D07A280FD105
:1025A0000DE044F400140AE044F4801401E044F423
:1025B00040147278824202D104F58014761C761C95
:1025C000307866280BD013DC582877D009DC002837
:1025D00075D04528F6D04628F4D047281AD19DE179
:1025E00018E0632835D0642879D0652812D195E1A8
:1025F000702873D008DC6728F1D069286FD06E2866
:102600000DD06F2806D1B5E073282CD0752875D071
:10261000782874D05A46179990476D1C75E1C4F319
:102620000250022809D003280DD0D9F80010042840
:102630000DD00D6009F1040967E1D9F80010EA171F
:10264000C1E90052F6E7D9F800100D80F2E70D70ED
:10265000F0E719F8041B8DF8001000208DF8010038
:10266000EA46012003E059F804AB4FF0FF30610760
:102670004FF0000102D40DE008F101018846B94293
:102680000FDA8045F8DB1AF808100029F4D108E0C9
:1026900008F1010188468142FADB1AF80810002986
:1026A000F6D105985B46A0EB080721463846179AF5
:1026B00000F094FA284400EB080507E04DE029E11A
:1026C0000DE01AF8010B5A4617999047B8F1010826
:1026D000F7D25B4621463846179A13E142E00A22B8
:1026E0000092C4F302524FF0000A022A08D059F8AF
:1026F00004CB032A4FEAEC710AD00DE029E02AE06E
:1027000009F1070121F00702F2E802C1914609E050
:102710000FFA8CFC4FEAEC71042A03D14FFA8CFCBF
:102720004FEAEC71002907DA0A460021DCF1000CBF
:1027300061EB02012D2202E0220504D52B228DF847
:102740000420012203E0E20701D02022F7E79046AF
:1027500059E00A2102E010220DE010214FF0000A9A
:1027600000910BE010224FF0000A44F00404082707
:10277000009203E008224FF0000A0092C4F30252D4
:10278000022A05D059F804CB0021032A08D009E019
:1027900009F1070121F00702F2E802C1914605E0C4
:1027A0001FFA8CFC042A01D10CF0FF0C4FF000083A
:1027B000220728D5702806D0009B83F0100353EA27
:1027C0000A0305D00EE040228DF80420012208E023
:1027D0005CEA010206D030228DF804208DF8050055
:1027E00002229046009B83F0080353EA0A030AD1B1
:1027F0005CEA010201D1620705D530228DF8042080
:102800004FF001087F1E582804D034A003900EA872
:1028100002900DE036A0F9E753466046009AFDF7B6
:102820005FFD84460398825C0298401E029002700D
:102830005CEA0100F0D1029806A9081A00F1200A0A
:10284000600702D524F4803400E00127574502DDFB
:10285000A7EB0A0000E0002000EB0A0100900598B9
:102860004144401A0590E00306D45B462146179A7E
:10287000059800F0B3F90544002706E001A85A4680
:10288000C05D179990476D1C7F1C4745F6DBE00340
:102890000CD55B462146179A059800F09FF9054430
:1028A00004E030205A46179990476D1C0099481E45
:1028B00000900029F5DC08E0029802995A46007859
:1028C000491C0291179990476D1CBAF10001AAF1B9
:1028D000010AF1DC65E100000928010030313233E2
:1028E000343536373839616263646566000000004C
:1028F0003031323334353637383941424344454636
:102900000000000000F058F90544761C30780028DB
:102910007FF4ECAD19B02846BDE8F08F620700D413
:10292000062709F1070222F0070CFCE80223E14622
:1029300003F000485FEA080C02D00FF2702C0DE0A3
:102940005FEA045C02D50FF2682C07E05FEAC47C02
:1029500002D00FF2602C01E0AFF2700C4FF0FF38A4
:1029600023F00043CDF850C065280CD006DC452884
:1029700009D046281DD047283DD13DE0662818D013
:1029800067287ED138E00021112F01DB112000E003
:10299000781CCDE9000106A90EA8FFF7DDFCDDE9F2
:1029A0000F010E9A03910021009207F1010A049190
:1029B0004DE04FF000400097CDE9011006A90EA8A8
:1029C000FFF7CAFCDDE90F0203920E9B119900226A
:1029D000DDF80CA00093049211B9791C00EB010AF8
:1029E000B7EB0A0004D4C0F1FF3007F1010A0490EC
:1029F000AAEB0700019044E0012F00DA0127002133
:102A0000112F01DD112000E03846CDE9000106A9B3
:102A10000EA8FFF7A1FCDDE90F010E9A039100213A
:102A200004910092BA4621070CD40399514500DA6B
:102A30008A46BAF1010F05DD009AAAF10101515C45
:102A4000302908D0B84202DA10F1040F06DA012169
:102A5000CDE9011015E0AAF10101E9E7002805DC44
:102A6000049901440491AAEB000102E0411C514584
:102A700000DD8A460499401A401C01904FF0004046
:102A80000290200704D40198504501DBCDF8048062
:102A900000208DF84F0002980DF14F07B0F1004F64
:102AA00025D02B200E9002984FF0020800280CDA57
:102AB000404202902D200E9007E00A210298FDF777
:102AC000F9FB3031029007F8011DB8F10001A8F1BF
:102AD0000108F2DC02980028EFD1791E0E980870E8
:102AE000307800F0200040F0450007F8020D12A8F1
:102AF000C01B00F107081498007800B1012000EB1A
:102B00000A01019801EBE07105984144401A401E0A
:102B10000590E00306D45B462146179A059800F01D
:102B20005DF805441498007818B15A4617999047F3
:102B30006D1CE00324D55B462146179A059800F0EA
:102B40004DF805441CE00498002807DBDDE903018B
:102B5000884203DD0098405C179901E01799302006
:102B60005A469047049805F10105401C04900198CD
:102B7000401E019004D12E205A46179990476D1C93
:102B8000BAF10001AAF1010ADDDC05E017F8010B3A
:102B90005A46179990476D1CB8F10001A8F1010839
:102BA000F4DC5B462146179A0598ABE62D00000041
:102BB0002B000000200000002DE9F0410446002514
:102BC0001E461746880404D405E039462020B04745
:102BD0006D1C641EF9D52846BDE8F0812DE9F04151
:102BE000044600251E469046C80301D5302700E064
:102BF0002027880404D505E041463846B0476D1CBF
:102C0000641EF9D52846BDE8F081000010B50A46DB
:102C1000002107E00B464C1CA1B24EF66024A342F3
:102C200000DD05E0054B1B6803F04003002BF1D0ED
:102C300000BFC3B2014C241D236010BD0038014009
:102C400010B5FFF730FAFFF733FAFFF737FB002034
:102C500010BD0000F0B50B30154D20F00701002429
:102C6000144A0FE003688B420BD38B4205D95E1ADE
:102C700043184768C3E9006700E04368136002C077
:102C800004E0021D10680028ECD12046002802D183
:102C9000286808B10020F0BD064A07481060074ABE
:102CA000121A22F00702C0E9002401202860D7E7A9
:102CB000780100207401002084010020800300209E
:102CC00000000000000000000102030406070809DC
:102CD0000000000001020304F82C0008000000209E
:102CE0007C010000EE0600084C2D00087C0100204D
:102CF00004060000482300081122207201420354F8
:102D000014014019060913180A1580181A38086AA0
:102D1000C21A61022B0C124474024010196301356F
:102D20001A584481A94419E3012B3A0101415A2C54
:102D3000CF82643A020389FC5A08FCA204A9183A1B
:0C2D4000010D6129DC394F9324F40000E0
:0400000508000131BD
:00000001FF
